{
  "contractName": "BlockchainButterflies",
  "abi": [
    {
      "inputs": [
        {
          "internalType": "string",
          "name": "_baseURI",
          "type": "string"
        }
      ],
      "stateMutability": "nonpayable",
      "type": "constructor"
    },
    {
      "inputs": [
        {
          "internalType": "address",
          "name": "sender",
          "type": "address"
        },
        {
          "internalType": "uint256",
          "name": "tokenId",
          "type": "uint256"
        },
        {
          "internalType": "address",
          "name": "owner",
          "type": "address"
        }
      ],
      "name": "ERC721IncorrectOwner",
      "type": "error"
    },
    {
      "inputs": [
        {
          "internalType": "address",
          "name": "operator",
          "type": "address"
        },
        {
          "internalType": "uint256",
          "name": "tokenId",
          "type": "uint256"
        }
      ],
      "name": "ERC721InsufficientApproval",
      "type": "error"
    },
    {
      "inputs": [
        {
          "internalType": "address",
          "name": "approver",
          "type": "address"
        }
      ],
      "name": "ERC721InvalidApprover",
      "type": "error"
    },
    {
      "inputs": [
        {
          "internalType": "address",
          "name": "operator",
          "type": "address"
        }
      ],
      "name": "ERC721InvalidOperator",
      "type": "error"
    },
    {
      "inputs": [
        {
          "internalType": "address",
          "name": "owner",
          "type": "address"
        }
      ],
      "name": "ERC721InvalidOwner",
      "type": "error"
    },
    {
      "inputs": [
        {
          "internalType": "address",
          "name": "receiver",
          "type": "address"
        }
      ],
      "name": "ERC721InvalidReceiver",
      "type": "error"
    },
    {
      "inputs": [
        {
          "internalType": "address",
          "name": "sender",
          "type": "address"
        }
      ],
      "name": "ERC721InvalidSender",
      "type": "error"
    },
    {
      "inputs": [
        {
          "internalType": "uint256",
          "name": "tokenId",
          "type": "uint256"
        }
      ],
      "name": "ERC721NonexistentToken",
      "type": "error"
    },
    {
      "inputs": [
        {
          "internalType": "address",
          "name": "owner",
          "type": "address"
        }
      ],
      "name": "OwnableInvalidOwner",
      "type": "error"
    },
    {
      "inputs": [
        {
          "internalType": "address",
          "name": "account",
          "type": "address"
        }
      ],
      "name": "OwnableUnauthorizedAccount",
      "type": "error"
    },
    {
      "anonymous": false,
      "inputs": [
        {
          "indexed": true,
          "internalType": "address",
          "name": "owner",
          "type": "address"
        },
        {
          "indexed": true,
          "internalType": "address",
          "name": "approved",
          "type": "address"
        },
        {
          "indexed": true,
          "internalType": "uint256",
          "name": "tokenId",
          "type": "uint256"
        }
      ],
      "name": "Approval",
      "type": "event"
    },
    {
      "anonymous": false,
      "inputs": [
        {
          "indexed": true,
          "internalType": "address",
          "name": "owner",
          "type": "address"
        },
        {
          "indexed": true,
          "internalType": "address",
          "name": "operator",
          "type": "address"
        },
        {
          "indexed": false,
          "internalType": "bool",
          "name": "approved",
          "type": "bool"
        }
      ],
      "name": "ApprovalForAll",
      "type": "event"
    },
    {
      "anonymous": false,
      "inputs": [
        {
          "indexed": false,
          "internalType": "uint256",
          "name": "_fromTokenId",
          "type": "uint256"
        },
        {
          "indexed": false,
          "internalType": "uint256",
          "name": "_toTokenId",
          "type": "uint256"
        }
      ],
      "name": "BatchMetadataUpdate",
      "type": "event"
    },
    {
      "anonymous": false,
      "inputs": [
        {
          "indexed": false,
          "internalType": "uint256",
          "name": "_tokenId",
          "type": "uint256"
        }
      ],
      "name": "MetadataUpdate",
      "type": "event"
    },
    {
      "anonymous": false,
      "inputs": [
        {
          "indexed": true,
          "internalType": "address",
          "name": "previousOwner",
          "type": "address"
        },
        {
          "indexed": true,
          "internalType": "address",
          "name": "newOwner",
          "type": "address"
        }
      ],
      "name": "OwnershipTransferred",
      "type": "event"
    },
    {
      "anonymous": false,
      "inputs": [
        {
          "indexed": true,
          "internalType": "address",
          "name": "from",
          "type": "address"
        },
        {
          "indexed": true,
          "internalType": "address",
          "name": "to",
          "type": "address"
        },
        {
          "indexed": true,
          "internalType": "uint256",
          "name": "tokenId",
          "type": "uint256"
        }
      ],
      "name": "Transfer",
      "type": "event"
    },
    {
      "inputs": [],
      "name": "MAX_SUPPLY",
      "outputs": [
        {
          "internalType": "uint256",
          "name": "",
          "type": "uint256"
        }
      ],
      "stateMutability": "view",
      "type": "function",
      "constant": true
    },
    {
      "inputs": [
        {
          "internalType": "address",
          "name": "to",
          "type": "address"
        },
        {
          "internalType": "uint256",
          "name": "tokenId",
          "type": "uint256"
        }
      ],
      "name": "approve",
      "outputs": [],
      "stateMutability": "nonpayable",
      "type": "function"
    },
    {
      "inputs": [
        {
          "internalType": "address",
          "name": "owner",
          "type": "address"
        }
      ],
      "name": "balanceOf",
      "outputs": [
        {
          "internalType": "uint256",
          "name": "",
          "type": "uint256"
        }
      ],
      "stateMutability": "view",
      "type": "function",
      "constant": true
    },
    {
      "inputs": [],
      "name": "currentTokenId",
      "outputs": [
        {
          "internalType": "uint256",
          "name": "",
          "type": "uint256"
        }
      ],
      "stateMutability": "view",
      "type": "function",
      "constant": true
    },
    {
      "inputs": [
        {
          "internalType": "uint256",
          "name": "tokenId",
          "type": "uint256"
        }
      ],
      "name": "getApproved",
      "outputs": [
        {
          "internalType": "address",
          "name": "",
          "type": "address"
        }
      ],
      "stateMutability": "view",
      "type": "function",
      "constant": true
    },
    {
      "inputs": [
        {
          "internalType": "address",
          "name": "owner",
          "type": "address"
        },
        {
          "internalType": "address",
          "name": "operator",
          "type": "address"
        }
      ],
      "name": "isApprovedForAll",
      "outputs": [
        {
          "internalType": "bool",
          "name": "",
          "type": "bool"
        }
      ],
      "stateMutability": "view",
      "type": "function",
      "constant": true
    },
    {
      "inputs": [],
      "name": "name",
      "outputs": [
        {
          "internalType": "string",
          "name": "",
          "type": "string"
        }
      ],
      "stateMutability": "view",
      "type": "function",
      "constant": true
    },
    {
      "inputs": [],
      "name": "owner",
      "outputs": [
        {
          "internalType": "address",
          "name": "",
          "type": "address"
        }
      ],
      "stateMutability": "view",
      "type": "function",
      "constant": true
    },
    {
      "inputs": [
        {
          "internalType": "uint256",
          "name": "tokenId",
          "type": "uint256"
        }
      ],
      "name": "ownerOf",
      "outputs": [
        {
          "internalType": "address",
          "name": "",
          "type": "address"
        }
      ],
      "stateMutability": "view",
      "type": "function",
      "constant": true
    },
    {
      "inputs": [],
      "name": "renounceOwnership",
      "outputs": [],
      "stateMutability": "nonpayable",
      "type": "function"
    },
    {
      "inputs": [
        {
          "internalType": "address",
          "name": "from",
          "type": "address"
        },
        {
          "internalType": "address",
          "name": "to",
          "type": "address"
        },
        {
          "internalType": "uint256",
          "name": "tokenId",
          "type": "uint256"
        }
      ],
      "name": "safeTransferFrom",
      "outputs": [],
      "stateMutability": "nonpayable",
      "type": "function"
    },
    {
      "inputs": [
        {
          "internalType": "address",
          "name": "from",
          "type": "address"
        },
        {
          "internalType": "address",
          "name": "to",
          "type": "address"
        },
        {
          "internalType": "uint256",
          "name": "tokenId",
          "type": "uint256"
        },
        {
          "internalType": "bytes",
          "name": "data",
          "type": "bytes"
        }
      ],
      "name": "safeTransferFrom",
      "outputs": [],
      "stateMutability": "nonpayable",
      "type": "function"
    },
    {
      "inputs": [
        {
          "internalType": "address",
          "name": "operator",
          "type": "address"
        },
        {
          "internalType": "bool",
          "name": "approved",
          "type": "bool"
        }
      ],
      "name": "setApprovalForAll",
      "outputs": [],
      "stateMutability": "nonpayable",
      "type": "function"
    },
    {
      "inputs": [
        {
          "internalType": "bytes4",
          "name": "interfaceId",
          "type": "bytes4"
        }
      ],
      "name": "supportsInterface",
      "outputs": [
        {
          "internalType": "bool",
          "name": "",
          "type": "bool"
        }
      ],
      "stateMutability": "view",
      "type": "function",
      "constant": true
    },
    {
      "inputs": [],
      "name": "symbol",
      "outputs": [
        {
          "internalType": "string",
          "name": "",
          "type": "string"
        }
      ],
      "stateMutability": "view",
      "type": "function",
      "constant": true
    },
    {
      "inputs": [
        {
          "internalType": "address",
          "name": "from",
          "type": "address"
        },
        {
          "internalType": "address",
          "name": "to",
          "type": "address"
        },
        {
          "internalType": "uint256",
          "name": "tokenId",
          "type": "uint256"
        }
      ],
      "name": "transferFrom",
      "outputs": [],
      "stateMutability": "nonpayable",
      "type": "function"
    },
    {
      "inputs": [
        {
          "internalType": "address",
          "name": "newOwner",
          "type": "address"
        }
      ],
      "name": "transferOwnership",
      "outputs": [],
      "stateMutability": "nonpayable",
      "type": "function"
    },
    {
      "inputs": [
        {
          "internalType": "address",
          "name": "recipient",
          "type": "address"
        }
      ],
      "name": "mintTo",
      "outputs": [
        {
          "internalType": "uint256",
          "name": "",
          "type": "uint256"
        }
      ],
      "stateMutability": "nonpayable",
      "type": "function"
    },
    {
      "inputs": [
        {
          "internalType": "uint256",
          "name": "tokenId",
          "type": "uint256"
        }
      ],
      "name": "tokenURI",
      "outputs": [
        {
          "internalType": "string",
          "name": "",
          "type": "string"
        }
      ],
      "stateMutability": "view",
      "type": "function",
      "constant": true
    },
    {
      "inputs": [
        {
          "internalType": "string",
          "name": "_baseURI",
          "type": "string"
        }
      ],
      "name": "setBaseURI",
      "outputs": [],
      "stateMutability": "nonpayable",
      "type": "function"
    },
    {
      "inputs": [
        {
          "internalType": "address",
          "name": "recipient",
          "type": "address"
        },
        {
          "internalType": "uint256",
          "name": "n",
          "type": "uint256"
        }
      ],
      "name": "mintNPublic",
      "outputs": [],
      "stateMutability": "nonpayable",
      "type": "function"
    },
    {
      "inputs": [
        {
          "internalType": "address",
          "name": "recipient",
          "type": "address"
        },
        {
          "internalType": "uint256",
          "name": "n",
          "type": "uint256"
        }
      ],
      "name": "mintN",
      "outputs": [],
      "stateMutability": "nonpayable",
      "type": "function"
    }
  ],
  "bytecode": "0x608060405234801562000010575f80fd5b5060405162003079380380620030798339818101604052810190620000369190620003ae565b336040518060400160405280601581526020017f426c6f636b636861696e427574746572666c69657300000000000000000000008152506040518060400160405280600481526020017f42464c5900000000000000000000000000000000000000000000000000000000815250815f9081620000b3919062000634565b508060019081620000c5919062000634565b5050505f73ffffffffffffffffffffffffffffffffffffffff168173ffffffffffffffffffffffffffffffffffffffff16036200013b575f6040517f1e4fbdf70000000000000000000000000000000000000000000000000000000081526004016200013291906200075b565b60405180910390fd5b6200014c816200016660201b60201c565b5080600990816200015e919062000634565b505062000776565b5f60075f9054906101000a900473ffffffffffffffffffffffffffffffffffffffff1690508160075f6101000a81548173ffffffffffffffffffffffffffffffffffffffff021916908373ffffffffffffffffffffffffffffffffffffffff1602179055508173ffffffffffffffffffffffffffffffffffffffff168173ffffffffffffffffffffffffffffffffffffffff167f8be0079c531659141344cd1fd0a4f28419497f9722a3daafe3b4186f6b6457e060405160405180910390a35050565b5f604051905090565b5f80fd5b5f80fd5b5f80fd5b5f80fd5b5f601f19601f8301169050919050565b7f4e487b71000000000000000000000000000000000000000000000000000000005f52604160045260245ffd5b6200028a8262000242565b810181811067ffffffffffffffff82111715620002ac57620002ab62000252565b5b80604052505050565b5f620002c062000229565b9050620002ce82826200027f565b919050565b5f67ffffffffffffffff821115620002f057620002ef62000252565b5b620002fb8262000242565b9050602081019050919050565b5f5b83811015620003275780820151818401526020810190506200030a565b5f8484015250505050565b5f620003486200034284620002d3565b620002b5565b9050828152602081018484840111156200036757620003666200023e565b5b6200037484828562000308565b509392505050565b5f82601f8301126200039357620003926200023a565b5b8151620003a584826020860162000332565b91505092915050565b5f60208284031215620003c657620003c562000232565b5b5f82015167ffffffffffffffff811115620003e657620003e562000236565b5b620003f4848285016200037c565b91505092915050565b5f81519050919050565b7f4e487b71000000000000000000000000000000000000000000000000000000005f52602260045260245ffd5b5f60028204905060018216806200044c57607f821691505b60208210810362000462576200046162000407565b5b50919050565b5f819050815f5260205f209050919050565b5f6020601f8301049050919050565b5f82821b905092915050565b5f60088302620004c67fffffffffffffffffffffffffffffffffffffffffffffffffffffffffffffffff8262000489565b620004d2868362000489565b95508019841693508086168417925050509392505050565b5f819050919050565b5f819050919050565b5f6200051c620005166200051084620004ea565b620004f3565b620004ea565b9050919050565b5f819050919050565b6200053783620004fc565b6200054f620005468262000523565b84845462000495565b825550505050565b5f90565b6200056562000557565b620005728184846200052c565b505050565b5b8181101562000599576200058d5f826200055b565b60018101905062000578565b5050565b601f821115620005e857620005b28162000468565b620005bd846200047a565b81016020851015620005cd578190505b620005e5620005dc856200047a565b83018262000577565b50505b505050565b5f82821c905092915050565b5f6200060a5f1984600802620005ed565b1980831691505092915050565b5f620006248383620005f9565b9150826002028217905092915050565b6200063f82620003fd565b67ffffffffffffffff8111156200065b576200065a62000252565b5b62000667825462000434565b620006748282856200059d565b5f60209050601f831160018114620006aa575f841562000695578287015190505b620006a1858262000617565b86555062000710565b601f198416620006ba8662000468565b5f5b82811015620006e357848901518255600182019150602085019450602081019050620006bc565b86831015620007035784890151620006ff601f891682620005f9565b8355505b6001600288020188555050505b505050505050565b5f73ffffffffffffffffffffffffffffffffffffffff82169050919050565b5f620007438262000718565b9050919050565b620007558162000737565b82525050565b5f602082019050620007705f8301846200074a565b92915050565b6128f580620007845f395ff3fe608060405234801561000f575f80fd5b506004361061013f575f3560e01c8063715018a6116100b6578063b88d4fde1161007a578063b88d4fde1461035f578063c87b56dd1461037b578063cf85f1c5146103ab578063dbf68cc9146103c7578063e985e9c5146103e3578063f2fde38b146104135761013f565b8063715018a6146102cd578063755edd17146102d75780638da5cb5b1461030757806395d89b4114610325578063a22cb465146103435761013f565b806323b872dd1161010857806323b872dd146101fb57806332cb6b0c1461021757806342842e0e1461023557806355f804b3146102515780636352211e1461026d57806370a082311461029d5761013f565b80629a9b7b1461014357806301ffc9a71461016157806306fdde0314610191578063081812fc146101af578063095ea7b3146101df575b5f80fd5b61014b61042f565b6040516101589190611a73565b60405180910390f35b61017b60048036038101906101769190611af2565b610435565b6040516101889190611b37565b60405180910390f35b610199610495565b6040516101a69190611bda565b60405180910390f35b6101c960048036038101906101c49190611c24565b610524565b6040516101d69190611c8e565b60405180910390f35b6101f960048036038101906101f49190611cd1565b61053f565b005b61021560048036038101906102109190611d0f565b610555565b005b61021f610654565b60405161022c9190611a73565b60405180910390f35b61024f600480360381019061024a9190611d0f565b61065a565b005b61026b60048036038101906102669190611e8b565b610679565b005b61028760048036038101906102829190611c24565b610694565b6040516102949190611c8e565b60405180910390f35b6102b760048036038101906102b29190611ed2565b6106a5565b6040516102c49190611a73565b60405180910390f35b6102d561075b565b005b6102f160048036038101906102ec9190611ed2565b61076e565b6040516102fe9190611a73565b60405180910390f35b61030f6107f7565b60405161031c9190611c8e565b60405180910390f35b61032d61081f565b60405161033a9190611bda565b60405180910390f35b61035d60048036038101906103589190611f27565b6108af565b005b61037960048036038101906103749190612003565b6108c5565b005b61039560048036038101906103909190611c24565b6108e2565b6040516103a29190611bda565b60405180910390f35b6103c560048036038101906103c09190611cd1565b610916565b005b6103e160048036038101906103dc9190611cd1565b61099c565b005b6103fd60048036038101906103f89190612083565b610a5e565b60405161040a9190611b37565b60405180910390f35b61042d60048036038101906104289190611ed2565b610aec565b005b60085481565b5f634906490660e01b7bffffffffffffffffffffffffffffffffffffffffffffffffffffffff1916827bffffffffffffffffffffffffffffffffffffffffffffffffffffffff1916148061048e575061048d82610b70565b5b9050919050565b60605f80546104a3906120ee565b80601f01602080910402602001604051908101604052809291908181526020018280546104cf906120ee565b801561051a5780601f106104f15761010080835404028352916020019161051a565b820191905f5260205f20905b8154815290600101906020018083116104fd57829003601f168201915b5050505050905090565b5f61052e82610c51565b5061053882610cd7565b9050919050565b610551828261054c610d10565b610d17565b5050565b5f73ffffffffffffffffffffffffffffffffffffffff168273ffffffffffffffffffffffffffffffffffffffff16036105c5575f6040517f64a0ae920000000000000000000000000000000000000000000000000000000081526004016105bc9190611c8e565b60405180910390fd5b5f6105d883836105d3610d10565b610d29565b90508373ffffffffffffffffffffffffffffffffffffffff168173ffffffffffffffffffffffffffffffffffffffff161461064e578382826040517f64283d7b0000000000000000000000000000000000000000000000000000000081526004016106459392919061211e565b60405180910390fd5b50505050565b6107d081565b61067483838360405180602001604052805f8152506108c5565b505050565b610681610f34565b806009908161069091906122f0565b5050565b5f61069e82610c51565b9050919050565b5f8073ffffffffffffffffffffffffffffffffffffffff168273ffffffffffffffffffffffffffffffffffffffff1603610716575f6040517f89c62b6400000000000000000000000000000000000000000000000000000000815260040161070d9190611c8e565b60405180910390fd5b60035f8373ffffffffffffffffffffffffffffffffffffffff1673ffffffffffffffffffffffffffffffffffffffff1681526020019081526020015f20549050919050565b610763610f34565b61076c5f610fbb565b565b5f6107d0600854106107b5576040517f08c379a00000000000000000000000000000000000000000000000000000000081526004016107ac90612409565b60405180910390fd5b5f600854905060085f8154809291906107cd90612454565b91905055506107dc838261107e565b6107ee816107e9836108e2565b61109b565b80915050919050565b5f60075f9054906101000a900473ffffffffffffffffffffffffffffffffffffffff16905090565b60606001805461082e906120ee565b80601f016020809104026020016040519081016040528092919081815260200182805461085a906120ee565b80156108a55780601f1061087c576101008083540402835291602001916108a5565b820191905f5260205f20905b81548152906001019060200180831161088857829003601f168201915b5050505050905090565b6108c16108ba610d10565b83836110f5565b5050565b6108d0848484610555565b6108dc8484848461125e565b50505050565b606060096108ef83611410565b60405160200161090092919061259f565b6040516020818303038152906040529050919050565b61091e610f34565b6107d08160085461092f91906125cd565b1115610970576040517f08c379a00000000000000000000000000000000000000000000000000000000081526004016109679061264a565b60405180910390fd5b5f5b81811015610997576109838361076e565b50808061098f90612454565b915050610972565b505050565b60148111156109e0576040517f08c379a00000000000000000000000000000000000000000000000000000000081526004016109d7906126b2565b60405180910390fd5b6107d0816008546109f191906125cd565b1115610a32576040517f08c379a0000000000000000000000000000000000000000000000000000000008152600401610a299061264a565b60405180910390fd5b5f5b81811015610a5957610a458361076e565b508080610a5190612454565b915050610a34565b505050565b5f60055f8473ffffffffffffffffffffffffffffffffffffffff1673ffffffffffffffffffffffffffffffffffffffff1681526020019081526020015f205f8373ffffffffffffffffffffffffffffffffffffffff1673ffffffffffffffffffffffffffffffffffffffff1681526020019081526020015f205f9054906101000a900460ff16905092915050565b610af4610f34565b5f73ffffffffffffffffffffffffffffffffffffffff168173ffffffffffffffffffffffffffffffffffffffff1603610b64575f6040517f1e4fbdf7000000000000000000000000000000000000000000000000000000008152600401610b5b9190611c8e565b60405180910390fd5b610b6d81610fbb565b50565b5f7f80ac58cd000000000000000000000000000000000000000000000000000000007bffffffffffffffffffffffffffffffffffffffffffffffffffffffff1916827bffffffffffffffffffffffffffffffffffffffffffffffffffffffff19161480610c3a57507f5b5e139f000000000000000000000000000000000000000000000000000000007bffffffffffffffffffffffffffffffffffffffffffffffffffffffff1916827bffffffffffffffffffffffffffffffffffffffffffffffffffffffff1916145b80610c4a5750610c4982611569565b5b9050919050565b5f80610c5c836115d2565b90505f73ffffffffffffffffffffffffffffffffffffffff168173ffffffffffffffffffffffffffffffffffffffff1603610cce57826040517f7e273289000000000000000000000000000000000000000000000000000000008152600401610cc59190611a73565b60405180910390fd5b80915050919050565b5f60045f8381526020019081526020015f205f9054906101000a900473ffffffffffffffffffffffffffffffffffffffff169050919050565b5f33905090565b610d24838383600161160b565b505050565b5f80610d34846115d2565b90505f73ffffffffffffffffffffffffffffffffffffffff168373ffffffffffffffffffffffffffffffffffffffff1614610d7557610d748184866117ca565b5b5f73ffffffffffffffffffffffffffffffffffffffff168173ffffffffffffffffffffffffffffffffffffffff1614610e0057610db45f855f8061160b565b600160035f8373ffffffffffffffffffffffffffffffffffffffff1673ffffffffffffffffffffffffffffffffffffffff1681526020019081526020015f205f82825403925050819055505b5f73ffffffffffffffffffffffffffffffffffffffff168573ffffffffffffffffffffffffffffffffffffffff1614610e7f57600160035f8773ffffffffffffffffffffffffffffffffffffffff1673ffffffffffffffffffffffffffffffffffffffff1681526020019081526020015f205f82825401925050819055505b8460025f8681526020019081526020015f205f6101000a81548173ffffffffffffffffffffffffffffffffffffffff021916908373ffffffffffffffffffffffffffffffffffffffff160217905550838573ffffffffffffffffffffffffffffffffffffffff168273ffffffffffffffffffffffffffffffffffffffff167fddf252ad1be2c89b69c2b068fc378daa952ba7f163c4a11628f55a4df523b3ef60405160405180910390a4809150509392505050565b610f3c610d10565b73ffffffffffffffffffffffffffffffffffffffff16610f5a6107f7565b73ffffffffffffffffffffffffffffffffffffffff1614610fb957610f7d610d10565b6040517f118cdaa7000000000000000000000000000000000000000000000000000000008152600401610fb09190611c8e565b60405180910390fd5b565b5f60075f9054906101000a900473ffffffffffffffffffffffffffffffffffffffff1690508160075f6101000a81548173ffffffffffffffffffffffffffffffffffffffff021916908373ffffffffffffffffffffffffffffffffffffffff1602179055508173ffffffffffffffffffffffffffffffffffffffff168173ffffffffffffffffffffffffffffffffffffffff167f8be0079c531659141344cd1fd0a4f28419497f9722a3daafe3b4186f6b6457e060405160405180910390a35050565b611097828260405180602001604052805f81525061188d565b5050565b8060065f8481526020019081526020015f2090816110b991906122f0565b507ff8e1a15aba9398e019f0b49df1a4fde98ee17ae345cb5f6b5e2c27f5033e8ce7826040516110e99190611a73565b60405180910390a15050565b5f73ffffffffffffffffffffffffffffffffffffffff168273ffffffffffffffffffffffffffffffffffffffff160361116557816040517f5b08ba1800000000000000000000000000000000000000000000000000000000815260040161115c9190611c8e565b60405180910390fd5b8060055f8573ffffffffffffffffffffffffffffffffffffffff1673ffffffffffffffffffffffffffffffffffffffff1681526020019081526020015f205f8473ffffffffffffffffffffffffffffffffffffffff1673ffffffffffffffffffffffffffffffffffffffff1681526020019081526020015f205f6101000a81548160ff0219169083151502179055508173ffffffffffffffffffffffffffffffffffffffff168373ffffffffffffffffffffffffffffffffffffffff167f17307eab39ab6107e8899845ad3d59bd9653f200f220920489ca2b5937696c31836040516112519190611b37565b60405180910390a3505050565b5f8373ffffffffffffffffffffffffffffffffffffffff163b111561140a578273ffffffffffffffffffffffffffffffffffffffff1663150b7a026112a1610d10565b8685856040518563ffffffff1660e01b81526004016112c39493929190612722565b6020604051808303815f875af19250505080156112fe57506040513d601f19601f820116820180604052508101906112fb9190612780565b60015b61137f573d805f811461132c576040519150601f19603f3d011682016040523d82523d5f602084013e611331565b606091505b505f81510361137757836040517f64a0ae9200000000000000000000000000000000000000000000000000000000815260040161136e9190611c8e565b60405180910390fd5b805181602001fd5b63150b7a0260e01b7bffffffffffffffffffffffffffffffffffffffffffffffffffffffff1916817bffffffffffffffffffffffffffffffffffffffffffffffffffffffff19161461140857836040517f64a0ae920000000000000000000000000000000000000000000000000000000081526004016113ff9190611c8e565b60405180910390fd5b505b50505050565b60605f8203611456576040518060400160405280600181526020017f30000000000000000000000000000000000000000000000000000000000000008152509050611564565b5f8290505f5b5f821461148557808061146e90612454565b915050600a8261147e91906127d8565b915061145c565b5f8167ffffffffffffffff8111156114a05761149f611d67565b5b6040519080825280601f01601f1916602001820160405280156114d25781602001600182028036833780820191505090505b5090505b5f851461155d576001826114ea9190612808565b9150600a856114f9919061283b565b603061150591906125cd565b60f81b81838151811061151b5761151a61286b565b5b60200101907effffffffffffffffffffffffffffffffffffffffffffffffffffffffffffff191690815f1a905350600a8561155691906127d8565b94506114d6565b8093505050505b919050565b5f7f01ffc9a7000000000000000000000000000000000000000000000000000000007bffffffffffffffffffffffffffffffffffffffffffffffffffffffff1916827bffffffffffffffffffffffffffffffffffffffffffffffffffffffff1916149050919050565b5f60025f8381526020019081526020015f205f9054906101000a900473ffffffffffffffffffffffffffffffffffffffff169050919050565b808061164357505f73ffffffffffffffffffffffffffffffffffffffff168273ffffffffffffffffffffffffffffffffffffffff1614155b15611775575f61165284610c51565b90505f73ffffffffffffffffffffffffffffffffffffffff168373ffffffffffffffffffffffffffffffffffffffff16141580156116bc57508273ffffffffffffffffffffffffffffffffffffffff168173ffffffffffffffffffffffffffffffffffffffff1614155b80156116cf57506116cd8184610a5e565b155b1561171157826040517fa9fbf51f0000000000000000000000000000000000000000000000000000000081526004016117089190611c8e565b60405180910390fd5b811561177357838573ffffffffffffffffffffffffffffffffffffffff168273ffffffffffffffffffffffffffffffffffffffff167f8c5be1e5ebec7d5bd14f71427d1e84f3dd0314c0f7b2291e5b200ac8c7c3b92560405160405180910390a45b505b8360045f8581526020019081526020015f205f6101000a81548173ffffffffffffffffffffffffffffffffffffffff021916908373ffffffffffffffffffffffffffffffffffffffff16021790555050505050565b6117d58383836118a8565b611888575f73ffffffffffffffffffffffffffffffffffffffff168373ffffffffffffffffffffffffffffffffffffffff160361184957806040517f7e2732890000000000000000000000000000000000000000000000000000000081526004016118409190611a73565b60405180910390fd5b81816040517f177e802f00000000000000000000000000000000000000000000000000000000815260040161187f929190612898565b60405180910390fd5b505050565b6118978383611968565b6118a35f84848461125e565b505050565b5f8073ffffffffffffffffffffffffffffffffffffffff168373ffffffffffffffffffffffffffffffffffffffff161415801561195f57508273ffffffffffffffffffffffffffffffffffffffff168473ffffffffffffffffffffffffffffffffffffffff161480611920575061191f8484610a5e565b5b8061195e57508273ffffffffffffffffffffffffffffffffffffffff1661194683610cd7565b73ffffffffffffffffffffffffffffffffffffffff16145b5b90509392505050565b5f73ffffffffffffffffffffffffffffffffffffffff168273ffffffffffffffffffffffffffffffffffffffff16036119d8575f6040517f64a0ae920000000000000000000000000000000000000000000000000000000081526004016119cf9190611c8e565b60405180910390fd5b5f6119e483835f610d29565b90505f73ffffffffffffffffffffffffffffffffffffffff168173ffffffffffffffffffffffffffffffffffffffff1614611a56575f6040517f73c6ac6e000000000000000000000000000000000000000000000000000000008152600401611a4d9190611c8e565b60405180910390fd5b505050565b5f819050919050565b611a6d81611a5b565b82525050565b5f602082019050611a865f830184611a64565b92915050565b5f604051905090565b5f80fd5b5f80fd5b5f7fffffffff0000000000000000000000000000000000000000000000000000000082169050919050565b611ad181611a9d565b8114611adb575f80fd5b50565b5f81359050611aec81611ac8565b92915050565b5f60208284031215611b0757611b06611a95565b5b5f611b1484828501611ade565b91505092915050565b5f8115159050919050565b611b3181611b1d565b82525050565b5f602082019050611b4a5f830184611b28565b92915050565b5f81519050919050565b5f82825260208201905092915050565b5f5b83811015611b87578082015181840152602081019050611b6c565b5f8484015250505050565b5f601f19601f8301169050919050565b5f611bac82611b50565b611bb68185611b5a565b9350611bc6818560208601611b6a565b611bcf81611b92565b840191505092915050565b5f6020820190508181035f830152611bf28184611ba2565b905092915050565b611c0381611a5b565b8114611c0d575f80fd5b50565b5f81359050611c1e81611bfa565b92915050565b5f60208284031215611c3957611c38611a95565b5b5f611c4684828501611c10565b91505092915050565b5f73ffffffffffffffffffffffffffffffffffffffff82169050919050565b5f611c7882611c4f565b9050919050565b611c8881611c6e565b82525050565b5f602082019050611ca15f830184611c7f565b92915050565b611cb081611c6e565b8114611cba575f80fd5b50565b5f81359050611ccb81611ca7565b92915050565b5f8060408385031215611ce757611ce6611a95565b5b5f611cf485828601611cbd565b9250506020611d0585828601611c10565b9150509250929050565b5f805f60608486031215611d2657611d25611a95565b5b5f611d3386828701611cbd565b9350506020611d4486828701611cbd565b9250506040611d5586828701611c10565b9150509250925092565b5f80fd5b5f80fd5b7f4e487b71000000000000000000000000000000000000000000000000000000005f52604160045260245ffd5b611d9d82611b92565b810181811067ffffffffffffffff82111715611dbc57611dbb611d67565b5b80604052505050565b5f611dce611a8c565b9050611dda8282611d94565b919050565b5f67ffffffffffffffff821115611df957611df8611d67565b5b611e0282611b92565b9050602081019050919050565b828183375f83830152505050565b5f611e2f611e2a84611ddf565b611dc5565b905082815260208101848484011115611e4b57611e4a611d63565b5b611e56848285611e0f565b509392505050565b5f82601f830112611e7257611e71611d5f565b5b8135611e82848260208601611e1d565b91505092915050565b5f60208284031215611ea057611e9f611a95565b5b5f82013567ffffffffffffffff811115611ebd57611ebc611a99565b5b611ec984828501611e5e565b91505092915050565b5f60208284031215611ee757611ee6611a95565b5b5f611ef484828501611cbd565b91505092915050565b611f0681611b1d565b8114611f10575f80fd5b50565b5f81359050611f2181611efd565b92915050565b5f8060408385031215611f3d57611f3c611a95565b5b5f611f4a85828601611cbd565b9250506020611f5b85828601611f13565b9150509250929050565b5f67ffffffffffffffff821115611f7f57611f7e611d67565b5b611f8882611b92565b9050602081019050919050565b5f611fa7611fa284611f65565b611dc5565b905082815260208101848484011115611fc357611fc2611d63565b5b611fce848285611e0f565b509392505050565b5f82601f830112611fea57611fe9611d5f565b5b8135611ffa848260208601611f95565b91505092915050565b5f805f806080858703121561201b5761201a611a95565b5b5f61202887828801611cbd565b945050602061203987828801611cbd565b935050604061204a87828801611c10565b925050606085013567ffffffffffffffff81111561206b5761206a611a99565b5b61207787828801611fd6565b91505092959194509250565b5f806040838503121561209957612098611a95565b5b5f6120a685828601611cbd565b92505060206120b785828601611cbd565b9150509250929050565b7f4e487b71000000000000000000000000000000000000000000000000000000005f52602260045260245ffd5b5f600282049050600182168061210557607f821691505b602082108103612118576121176120c1565b5b50919050565b5f6060820190506121315f830186611c7f565b61213e6020830185611a64565b61214b6040830184611c7f565b949350505050565b5f819050815f5260205f209050919050565b5f6020601f8301049050919050565b5f82821b905092915050565b5f600883026121af7fffffffffffffffffffffffffffffffffffffffffffffffffffffffffffffffff82612174565b6121b98683612174565b95508019841693508086168417925050509392505050565b5f819050919050565b5f6121f46121ef6121ea84611a5b565b6121d1565b611a5b565b9050919050565b5f819050919050565b61220d836121da565b612221612219826121fb565b848454612180565b825550505050565b5f90565b612235612229565b612240818484612204565b505050565b5b81811015612263576122585f8261222d565b600181019050612246565b5050565b601f8211156122a85761227981612153565b61228284612165565b81016020851015612291578190505b6122a561229d85612165565b830182612245565b50505b505050565b5f82821c905092915050565b5f6122c85f19846008026122ad565b1980831691505092915050565b5f6122e083836122b9565b9150826002028217905092915050565b6122f982611b50565b67ffffffffffffffff81111561231257612311611d67565b5b61231c82546120ee565b612327828285612267565b5f60209050601f831160018114612358575f8415612346578287015190505b61235085826122d5565b8655506123b7565b601f19841661236686612153565b5f5b8281101561238d57848901518255600182019150602085019450602081019050612368565b868310156123aa57848901516123a6601f8916826122b9565b8355505b6001600288020188555050505b505050505050565b7f4d617820737570706c79207265616368656400000000000000000000000000005f82015250565b5f6123f3601283611b5a565b91506123fe826123bf565b602082019050919050565b5f6020820190508181035f830152612420816123e7565b9050919050565b7f4e487b71000000000000000000000000000000000000000000000000000000005f52601160045260245ffd5b5f61245e82611a5b565b91507fffffffffffffffffffffffffffffffffffffffffffffffffffffffffffffffff82036124905761248f612427565b5b600182019050919050565b5f81905092915050565b5f81546124b1816120ee565b6124bb818661249b565b9450600182165f81146124d557600181146124ea5761251c565b60ff198316865281151582028601935061251c565b6124f385612153565b5f5b83811015612514578154818901526001820191506020810190506124f5565b838801955050505b50505092915050565b5f61252f82611b50565b612539818561249b565b9350612549818560208601611b6a565b80840191505092915050565b7f2e6a736f6e0000000000000000000000000000000000000000000000000000005f82015250565b5f61258960058361249b565b915061259482612555565b600582019050919050565b5f6125aa82856124a5565b91506125b68284612525565b91506125c18261257d565b91508190509392505050565b5f6125d782611a5b565b91506125e283611a5b565b92508282019050808211156125fa576125f9612427565b5b92915050565b7f45786365656473206d617820737570706c7900000000000000000000000000005f82015250565b5f612634601283611b5a565b915061263f82612600565b602082019050919050565b5f6020820190508181035f83015261266181612628565b9050919050565b7f4d617820323020746f6b656e7320617420612074696d650000000000000000005f82015250565b5f61269c601783611b5a565b91506126a782612668565b602082019050919050565b5f6020820190508181035f8301526126c981612690565b9050919050565b5f81519050919050565b5f82825260208201905092915050565b5f6126f4826126d0565b6126fe81856126da565b935061270e818560208601611b6a565b61271781611b92565b840191505092915050565b5f6080820190506127355f830187611c7f565b6127426020830186611c7f565b61274f6040830185611a64565b818103606083015261276181846126ea565b905095945050505050565b5f8151905061277a81611ac8565b92915050565b5f6020828403121561279557612794611a95565b5b5f6127a28482850161276c565b91505092915050565b7f4e487b71000000000000000000000000000000000000000000000000000000005f52601260045260245ffd5b5f6127e282611a5b565b91506127ed83611a5b565b9250826127fd576127fc6127ab565b5b828204905092915050565b5f61281282611a5b565b915061281d83611a5b565b925082820390508181111561283557612834612427565b5b92915050565b5f61284582611a5b565b915061285083611a5b565b9250826128605761285f6127ab565b5b828206905092915050565b7f4e487b71000000000000000000000000000000000000000000000000000000005f52603260045260245ffd5b5f6040820190506128ab5f830185611c7f565b6128b86020830184611a64565b939250505056fea26469706673582212200ca042e685fc67ecde65d600b8a12e8c2fe1cc6a5ffe3e23fea7eefdbcbd1f3d64736f6c63430008150033",
  "immutableReferences": {},
  "source": "// SPDX-License-Identifier: MIT\npragma solidity ^0.8.0;\n\nimport \"@openzeppelin/contracts/token/ERC721/extensions/ERC721URIStorage.sol\";\nimport \"@openzeppelin/contracts/access/Ownable.sol\";\n\ncontract BlockchainButterflies is ERC721URIStorage, Ownable {\n    uint256 public constant MAX_SUPPLY = 2000;\n    uint256 public currentTokenId;\n    string baseURI;\n\n    constructor(string memory _baseURI) ERC721(\"BlockchainButterflies\", \"BFLY\") Ownable(msg.sender){\n        baseURI = _baseURI; \n    }\n\n    function mintTo(address recipient) public returns (uint256) {\n        require(currentTokenId < MAX_SUPPLY, \"Max supply reached\");\n        uint256 newTokenId = currentTokenId;\n        currentTokenId++;\n        _safeMint(recipient, newTokenId);\n        _setTokenURI(newTokenId, tokenURI(newTokenId));\n        return newTokenId;\n    }\n\n    function tokenURI(uint256 tokenId) public view virtual override returns (string memory) {\n        return string(abi.encodePacked(baseURI, toString(tokenId), \".json\"));\n    }\n\n    function setBaseURI(string memory _baseURI) public onlyOwner {\n        baseURI = _baseURI;\n    }\n\n   function mintNPublic(address recipient, uint256 n) public {\n    require(n <= 20, \"Max 20 tokens at a time\");\n    require(currentTokenId + n <= MAX_SUPPLY, \"Exceeds max supply\");\n\n    for (uint256 i = 0; i < n; i++) {\n        mintTo(recipient);\n        }\n    }\n\n    function mintN(address recipient, uint256 n) public onlyOwner{\n    require(currentTokenId + n <= MAX_SUPPLY, \"Exceeds max supply\");\n\n    for (uint256 i = 0; i < n; i++) {\n        mintTo(recipient);\n        }\n    }\n\n\n   function toString(uint256 value) internal pure returns (string memory) {\n    if (value == 0) {\n        return \"0\";\n    }\n\n    uint256 temp = value;\n    uint256 digits;\n    while (temp != 0) {\n        digits++;\n        temp /= 10;\n    }\n\n    bytes memory buffer = new bytes(digits);\n\n    while (value != 0) {\n        digits -= 1;\n        buffer[digits] = bytes1(uint8(48 + value % 10));\n        value /= 10;\n    }\n\n    return string(buffer);\n    }\n}\n",
  "sourcePath": "/Users/sean/Dev/Smart Contract Dev/contract/contracts/bb.sol",
  "compiler": {
    "name": "solc",
    "version": "0.8.21+commit.d9974bed.Emscripten.clang"
  },
  "schemaVersion": "3.4.16",
  "updatedAt": "2024-01-07T02:07:26.505Z",
  "networkType": "ethereum",
  "devdoc": {
    "errors": {
      "ERC721IncorrectOwner(address,uint256,address)": [
        {
          "details": "Indicates an error related to the ownership over a particular token. Used in transfers.",
          "params": {
            "owner": "Address of the current owner of a token.",
            "sender": "Address whose tokens are being transferred.",
            "tokenId": "Identifier number of a token."
          }
        }
      ],
      "ERC721InsufficientApproval(address,uint256)": [
        {
          "details": "Indicates a failure with the `operator`s approval. Used in transfers.",
          "params": {
            "operator": "Address that may be allowed to operate on tokens without being their owner.",
            "tokenId": "Identifier number of a token."
          }
        }
      ],
      "ERC721InvalidApprover(address)": [
        {
          "details": "Indicates a failure with the `approver` of a token to be approved. Used in approvals.",
          "params": {
            "approver": "Address initiating an approval operation."
          }
        }
      ],
      "ERC721InvalidOperator(address)": [
        {
          "details": "Indicates a failure with the `operator` to be approved. Used in approvals.",
          "params": {
            "operator": "Address that may be allowed to operate on tokens without being their owner."
          }
        }
      ],
      "ERC721InvalidOwner(address)": [
        {
          "details": "Indicates that an address can't be an owner. For example, `address(0)` is a forbidden owner in EIP-20. Used in balance queries.",
          "params": {
            "owner": "Address of the current owner of a token."
          }
        }
      ],
      "ERC721InvalidReceiver(address)": [
        {
          "details": "Indicates a failure with the token `receiver`. Used in transfers.",
          "params": {
            "receiver": "Address to which tokens are being transferred."
          }
        }
      ],
      "ERC721InvalidSender(address)": [
        {
          "details": "Indicates a failure with the token `sender`. Used in transfers.",
          "params": {
            "sender": "Address whose tokens are being transferred."
          }
        }
      ],
      "ERC721NonexistentToken(uint256)": [
        {
          "details": "Indicates a `tokenId` whose `owner` is the zero address.",
          "params": {
            "tokenId": "Identifier number of a token."
          }
        }
      ],
      "OwnableInvalidOwner(address)": [
        {
          "details": "The owner is not a valid owner account. (eg. `address(0)`)"
        }
      ],
      "OwnableUnauthorizedAccount(address)": [
        {
          "details": "The caller account is not authorized to perform an operation."
        }
      ]
    },
    "events": {
      "Approval(address,address,uint256)": {
        "details": "Emitted when `owner` enables `approved` to manage the `tokenId` token."
      },
      "ApprovalForAll(address,address,bool)": {
        "details": "Emitted when `owner` enables or disables (`approved`) `operator` to manage all of its assets."
      },
      "BatchMetadataUpdate(uint256,uint256)": {
        "details": "This event emits when the metadata of a range of tokens is changed. So that the third-party platforms such as NFT market could timely update the images and related attributes of the NFTs."
      },
      "MetadataUpdate(uint256)": {
        "details": "This event emits when the metadata of a token is changed. So that the third-party platforms such as NFT market could timely update the images and related attributes of the NFT."
      },
      "Transfer(address,address,uint256)": {
        "details": "Emitted when `tokenId` token is transferred from `from` to `to`."
      }
    },
    "kind": "dev",
    "methods": {
      "approve(address,uint256)": {
        "details": "See {IERC721-approve}."
      },
      "balanceOf(address)": {
        "details": "See {IERC721-balanceOf}."
      },
      "getApproved(uint256)": {
        "details": "See {IERC721-getApproved}."
      },
      "isApprovedForAll(address,address)": {
        "details": "See {IERC721-isApprovedForAll}."
      },
      "name()": {
        "details": "See {IERC721Metadata-name}."
      },
      "owner()": {
        "details": "Returns the address of the current owner."
      },
      "ownerOf(uint256)": {
        "details": "See {IERC721-ownerOf}."
      },
      "renounceOwnership()": {
        "details": "Leaves the contract without owner. It will not be possible to call `onlyOwner` functions. Can only be called by the current owner. NOTE: Renouncing ownership will leave the contract without an owner, thereby disabling any functionality that is only available to the owner."
      },
      "safeTransferFrom(address,address,uint256)": {
        "details": "See {IERC721-safeTransferFrom}."
      },
      "safeTransferFrom(address,address,uint256,bytes)": {
        "details": "See {IERC721-safeTransferFrom}."
      },
      "setApprovalForAll(address,bool)": {
        "details": "See {IERC721-setApprovalForAll}."
      },
      "supportsInterface(bytes4)": {
        "details": "See {IERC165-supportsInterface}"
      },
      "symbol()": {
        "details": "See {IERC721Metadata-symbol}."
      },
      "tokenURI(uint256)": {
        "details": "See {IERC721Metadata-tokenURI}."
      },
      "transferFrom(address,address,uint256)": {
        "details": "See {IERC721-transferFrom}."
      },
      "transferOwnership(address)": {
        "details": "Transfers ownership of the contract to a new account (`newOwner`). Can only be called by the current owner."
      }
    },
    "version": 1
  },
  "userdoc": {
    "kind": "user",
    "methods": {},
    "version": 1
  }
}